:020000040000FA
:04000000803105281E
:100008000900EA210130C0000230BE008130C20080
:100018000830B8000130C400BC01BA01D521210064
:100028008D130D178C108D160D160E178E160D309C
:100038002000A000FF212E08A5002F08A600A70178
:10004800A8010B30A000FF212E08A1002F08A20054
:10005800A301A4012508F5002608F6002708F700E3
:100068002808F8005030F9005F30FA00FB01FC0165
:10007800D0247008D7007108D8007208D900730816
:10008800DA005708F5005808F6005908F7005A082A
:10009800F8004030F9004230FA000F30FB00FC0154
:1000A80076247508A9007608AA007708AB007808B6
:1000B800AC002108F5002208F6002308F700240800
:1000C800F8005030F9005F30FA00FB01FC01D02441
:1000D8007008D7007108D8007208D9007308DA00D0
:1000E8005708F5005808F6005908F7005A08F800AC
:1000F8004030F9004230FA000F30FB00FC01762452
:100108007508DC007608DD007708DE007808DF0077
:100118002908F5002A08F6002B08F7002C08F80033
:100128005C08F9005D08FA005E08FB005F08FC0047
:10013800D0247008D7007108D8007208D900730855
:10014800DA005708F5005808F6005908F7005A0869
:10015800F8006430F900FA01FB01FC017624750807
:10016800E4007608E5007708E6007808E700640808
:100178005C02E00065085D3BE10066085E3BE2006A
:1001880067085F3BE3008E1AA7290130C000DF3003
:100198008600273087002730F7000530F800102543
:1001A800DF30D4002730D5003A230130C0002508BD
:1001B800B2002608B3002708B4002808B500572362
:1001C8000130C0000D30B7009F230130C0000A3055
:1001D800B7009F230130C000DF308600273087003A
:1001E8002D30F7000530F8001025DF30D400273017
:1001F800D5003A230130C0002108B2002208B3001C
:100208002308B4002408B50057230130C0000D307E
:10021800B7009F230130C0000A30B7009F23013088
:10022800C000DF308600273087003330F700053004
:10023800F8001025DF30D4002730D5003A230130EC
:10024800C0006408B2006508B3006608B400670817
:10025800B50057230130C0000D30B7009F2301308F
:10026800C0000A30B7009F230130C000DF3086008D
:10027800273087003830F7000530F8001025DF30C8
:10028800D4002730D5003A230130C0006008B200FE
:100298006108B3006208B4006308B5005723013051
:1002A800C0000D30B7009F230130C0000A30B700EE
:1002B8009F230130C000DF308600273087003E30A2
:1002C800F7000530F8001025DF30D4002730D500BE
:1002D8003A230130C0002908B2002A08B3002B08CD
:1002E800B4002C08B50057230130C0000D30B7000A
:1002F8009F230130C0000A30B7009F230130C0009F
:10030800DF308600273087004430F7000530F800DA
:100318001025DF30D4002730D5003A230130C00043
:100328005C08B2005D08B3005E08B4005F08B50061
:1003380057230130C0000D30B7009F230130C000A3
:100348000A30B7009F230E1BAC2922008C14BC294D
:1003580022008C1420006408F2006508F300C7210D
:1003680022008C1020006008F2006108F300C72109
:100378001B286300BD290530F000F00BC1290000DF
:10038800F50BBF290800F30A0430F100A530F0008E
:10039800F00BCC29F10BCA29F20BC829F30BC82999
:1003A80008004008C1004003031DE6293E08BF00BD
:1003B8004208C3003808B9004408C5003C08BD001D
:1003C8003A08BB000530F200F301C72921001917CC
:1003D80099161916991199139E131D1023008C0153
:1003E8008D018E0122009313911320008C018D0141
:1003F8008E019001080021009E179D131F149F1461
:100408001F159F152000A008031D0D2A23000C149A
:100418007B2A2003031D132A23008C147B2A023015
:100428002002031D1A2A23000C157B2A0330200200
:10043800031D212A23008C157B2A04302002031D6A
:10044800282A23008C167B2A0C302002031D2F2A11
:1004580023000D147B2A0A302002031D362A2300AC
:100468008D147B2A08302002031D3D2A23000D1518
:100478007B2A09302002031D442A23008D157B2A7C
:100488000B302002031D4B2A23000D167B2A0D304A
:100498002002031D522A23008D167B2A0E302002CB
:1004A800031D592A23000E157B2A0F302002031D35
:1004B800602A23008E157B2A10302002031D672A2C
:1004C80023000E167B2A11302002031D6E2A2300FA
:1004D8008E167B2A12302002031D752A23000E1760
:1004E8007B2A13302002031D7B2A23008E1721004C
:1004F8001E139E121E161D119D111D129D121D13F5
:100508002000201C892A21001D152000A01C8E2AED
:1005180021009D152000201D932A21001D16200072
:10052800A01D982A21009D162000201E9D2A21002A
:100538001D1721001D140230F5002000BF212100E5
:100548009D1400009D18A62A1D1023008C018D0102
:100558008E0121001B082000AE00AF0121001C08FD
:100568002000AF0021009E13200008003E03031D59
:10057800C32A1630F000F00BBF2A00000800023032
:100588003E02031DCC2A3730F000F00BC92A0800C0
:1005980004303E02031DD62A7A30F000F00BD22A2E
:1005A8000000080008303E02031DE72A0130F10070
:1005B800F001F00BDD2AF10BDC2A0230F000F00B21
:1005C800E32A0000080010303E02031DF82A02301A
:1005D800F100F001F00BEE2AF10BED2A1530F000D6
:1005E800F00BF42A0000080020303E02031D092BFE
:1005F8000430F100F001F00BFF2AF10BFE2A3D3028
:10060800F000F00B052B0000080040303E02031DEF
:10061800192B0830F100F001F00B102BF10B0F2B08
:100628009130F000F00B162B0800B10101303E02AA
:10063800031C272BB10A1C30F000F00B212B3E08BD
:100648003102031C1E2B08004008C1004003031D93
:10065800392B3F08BE004308C2003908B8004508D6
:10066800C4003D08BC003B08BA00080054088400D8
:10067800550885000008AD00AD080319562BD601B2
:1006880001302D02031C562BD60A56085407840045
:100698000030553D85000008B7009F232D085602FD
:1006A800031C482B0800D301D30AE5305307840004
:1006B800D7012730573D85003208F5003308F6008A
:1006C8003408F7003508F8000A30F900FA01FB0190
:1006D800FC017624700880007508B2007608B30023
:1006E8007708B4007808B5003208F5003308F6003A
:1006F8003408F7003508F800F901FA01FB01FC019C
:100708004A24F0097018582B530AD60001305302B6
:10071800031C9E2BD603E53056078400D7012730EB
:10072800573D850030300007B7009F235608013C2D
:10073800031C8E2B080041084002031D28237F302C
:100748004205B600B00101303602031CC92BB00ABD
:10075800BA08031DB92B4003031DB42B22008D13C7
:100768002000BA220000000000003A03031DC52B38
:100778004003031DC12B22008D172000BA22000060
:10078800000036083002031CAB2B3608DB00B00132
:1007980001303802031C102CB00ABA08031DEE2BD6
:1007A800371CDE2B4003031DDB2B22008D17200096
:1007B800BA22DB0A3718EE2B4003031DE52B220073
:1007C8008D132000BA220000000000000000000085
:1007D800000000003A03031D0B2C371CFB2B4003C1
:1007E800031DF82B22008D132000BA22DB0A3718CC
:1007F8000B2C4003031D022C22008D172000BA2267
:100808000000000000000000000000000000B70C1D
:1008180038083002031CD02BBC0803192B2C3C03CE
:100828000319DB0A3A030319DB0A5B1C222C400379
:10083800031D202C22008D132000BA225B182B2CBC
:100848004003031D292C22008D172000BA22B00175
:1008580001304402031C492CB00ABA08031D3B2C82
:100868004003031D392C22008D172000BA223A03B9
:10087800031D452C4003031D432C22008D1320002B
:10088800BA2244083002031C302CBA2AF001750839
:100898007902031D080076087A02031D080077080C
:1008A8007B02031D080078087C02031D0800F0097C
:1008B8000800F00178087C02031C0800031D742C52
:1008C80077087B02031C0800031D742C76087A0243
:1008D800031C0800031D742C79087502031808000E
:1008E800F00908007508C7007608C8007708C9002D
:1008F8007808CA007908CB007A08CC007B08CD00BC
:100908007C08CE00CF01D001D101D2014B08F500FF
:100918004C08F6004D08F7004E08F800F901FA01F6
:10092800FB01FC014A24701C9E2CF501F601F7011D
:10093800F80108002030F4000310C70DC80DC90DD8
:10094800CA0DCF0DD00DD10DD20D4B08CF024C08DA
:10095800D03B4D08D13B4E08D23B47140318BD2C61
:1009680047104B08CF074C08D03D4D08D13D4E08E5
:10097800D23DF40BA02C4708F5004808F6004908BA
:10098800F7004A08F8004F08F0005008F100510835
:10099800F2005208F30008007508C7007608C8007E
:1009A8007708C9007808CA007908CB007A08CC0013
:1009B8007B08CD007C08CE00CF01D001D101D20147
:1009C8004B1CEE2C4708CF074808D03D4908D13DBD
:1009D8004A08D23D0310CE0CCD0CCC0CCB0C031026
:1009E800C70DC80DC90DCA0D4B08F9004C08FA000F
:1009F8004D08FB004E08FC00F501F601F701F8016F
:100A08005D247018E42C4F08F0005008F1005108DC
:100A1800F2005208F30008002025F5008100172D88
:100A28002025F500F607F5080319080020254131AF
:100A38008100F50B1A2D080078088A007708F70A54
:100A48000319F80A8200053441344E343134333402
:100A58002034053441344E343134313420340434B4
:100A680054346F346E342034053454346F3466345F
:100A7800663420340534443475347434793420347D
:0C0A88000534543469346D346534203476
:020000040001F9
:04000E00A43FFF1EEE
:00000001FF
