:020000040000FA
:020000000528D1
:1000080009000721AC20F620A801A7016B21BA300E
:10001800F2000030F300D130F7000130F800AE21D3
:10002800BA30AF000030B00083210130A800A7012A
:100038006B21BA30F2000030F300D630F7000130FF
:10004800F800AE21BA30AF000030B0008321630061
:100058002B28AE100130A60019210430F200F3015C
:1000680043208030A60019210C30F5003B280530CC
:10007800F000F00B3D280000F50B3B280800F30AC0
:100088000430F100A530F000F00B4828F10B4628A9
:10009800F20B4428F30B442808008F288316851098
:1000A8008312851057280830B300A21F5E288316D4
:1000B8000514622883160510831205108312A20DF9
:1000C800831685148312851C66286A288316851072
:1000D800831285106F28B30B59287228732883164A
:1000E8000514762885148312851C7728051C7F281B
:1000F800A001A1018328FF30A000FF30A1008316D2
:100108008510831285108828831605108312051020
:100118008D288E2808008316051485149328051049
:1001280083120510972883168510831285100800FE
:100138008316851083128510831605108312051007
:10014800A52883168514A8280514AA288312080050
:100158008316051485148312A30108000F30F200DA
:10016800F30143200330A60019210530F200F30102
:1001780043200330A60019210130F200F301432087
:100188000330A60019210130F200F30143200330A7
:10019800A60019210130F200F30143200230A60025
:1001A80019210130F200F30143202830A60019215B
:1001B8000130F200F30143200C30A6001921013070
:1001C800F200F30143200130A60019210F30F2009C
:1001D800F30143200630A60019210130F200F30193
:1001E80043202D28AC200130A9000230F200F30191
:1001F80043200230B2007E30AA00B220B20BFF28A2
:100208000C30AB000800703083168F048F308F05D8
:100218000F178F160F1683129F131F1083169F0137
:1002280007308312990085010800AE1C1D2925148A
:100238001E292510A510A5112918A51551202A0831
:10024800A2005220A513A61BA5172513261B2517A8
:10025800A512A61AA5162512261A2516251125084F
:10026800A200522025152508A20052202511250894
:10027800A2005220A513A619A5172513261925177C
:10028800A512A618A5162512261825162511250823
:10029800A200522025152508A20052202511250864
:1002A800A20052209C200C30AB001A30F000F00B5A
:1002B8005B290000AE186A291030260203186A2943
:1002C8002608073C03186A292608AB000800AE1068
:1002D8002808013C031874290230A8021430A70723
:1002E8002808F5004030F900A22127087007B4005B
:1002F80080303404A60019210530F5003B282F086A
:1003080084008313301883170008AC00AC08031965
:100318000800AE14B10101302C02031CA129B10A56
:1003280031082F0784008313301883170008A600AC
:1003380019212C083102031C93290800F0017508C3
:100348007918F0070310F90C0310F50DF908031DCF
:10035800A329080072088400831373188317CA211D
:10036800F5008000F207C12972088400831373180E
:100378008317CA21F500F607F207F50803190800E4
:10038800CA21840A8000F50BC429080078088A006D
:100398007708F70A0319F80A8200043474346534BC
:1003A80073347434053474346534733474343234C7
:02400E00D43F9D
:00000001FF
