:020000040000FA
:0400000080315B28C8
:10000800FE00030EFF00080820002100B00075085C
:100018002000E0007608E2007708E3007808E100B5
:100028007908E4007A08E6007B08E7007C08E50028
:100038007008DE007408DF007108E9007208EA0041
:100048007308E8000A08DD008A012100111C342821
:100058002000111C342888310020803111103428E8
:1000680020006008F5006208F6006308F7006108E0
:10007800F8006408F9006608FA006708FB006508DC
:10008800FC005E08F0005F08F4006908F1006A08E7
:10009800F2006808F3005D088A0021003008880033
:0C00A8007F0E8300FE0E7E0E090020007B
:1000B60067258B170B1721008D130D170130A9002B
:1000C6000230A7008130AB000830A1000130AD003E
:1000D600A501A3012000893135218031013021009D
:1000E600D2002030D10020007C25210011140130DF
:1000F600D000200089310121803101302100D0005B
:1001060020008A319822803121000C168C150C159E
:100116008D110E168E160E178C102000C101C2010D
:100126002100CC01CD01CE01CF012000BF01C001CD
:10013600B901BA01BB01BC0122008D118C1022004D
:100146008D152000BF01C001B901BA01BB01BC0178
:10015600C101C2018C18B12822008D1120008C1C0F
:10016600B62822008D15200088316F208031BF010E
:10017600C001AF2480316625C830F200F301893111
:100186001F2180313F08F9004008FA00FB01FC01FD
:100196005208F5005308F6005408F7005508F80011
:1001A6008A31EA22803170082100C300F001200064
:1001B6008C18F009210043087005C70047184A2C1F
:1001C60020003F08F9004008FA00FB01FC014E0838
:1001D600F5004F08F6005008F7005108F8008A317C
:1001E600EA22803170082100C300F00120008C183B
:1001F600F009210043087005C7004718392C200074
:10020600CA0A4908F900F5018A31D42281317008F9
:100216002100C30020004A08F9000A30F5008A319F
:10022600D422813170082100C70020004A08F90055
:100236000A30F5008A31D42281312100430847056E
:10024600C8007004C300431C2B292000C901CA0141
:100256002000C80A4708F900F5018A31D422813105
:1002660070082100C30020004808F9000A30F50094
:100276008A31D422813170082100C7002000480845
:10028600F9000A30F5008A31D42281312100430871
:100296004705C8007004C300431C54292000C70149
:1002A600C8012000CC0A4B08F900F5018A31D42296
:1002B600813170082100C30020004C08F9000A3083
:1002C600F5008A31D422813170082100C700200050
:1002D6004C08F9000A30F5008A31D4228131210018
:1002E60043084705C8007004C300431C7D2920004D
:1002F600CB01CC0120004108F5004208F600CD30C4
:10030600F900FA018A31DB22813170082100C3002D
:10031600F00120008C18F009210043087005C70081
:100326004718682CF00120000E1EF0097008210005
:10033600C300F00120008E1AF00921004308700561
:10034600C7004718AA2BF00120000E1EF0097008FE
:100356002100C300F00120008E1EF0092100430891
:100366007005C7004718B52BF00120000E1AF009DA
:1003760070082100C300F00120008E1EF009210044
:1003860043087005C7004718B52B20003108F9004F
:100396003208FA003308FB003408FC003530F5005B
:1003A600FF30F600F701F8018A31EA228131700840
:1003B6002100C30020003508F9003608FA00370886
:1003C600FB003808FC003530F500FF30F600F70179
:1003D600F8018A31EA228131210043087005C700FD
:1003E6004718902C20003108F9003208FA0033082B
:1003F600FB003408FC00FD30F5006F30F600F70115
:10040600F8018A31EA22823170082100C3002000F7
:100416003108F5003208F6003308F7003408F80012
:10042600FC30F9008B30FA00FB01FC018A31EA222C
:10043600823170082100C700F00120008C18F009F5
:10044600210043084705C8007005C3004318CC2B9C
:1004560020003108F9003208FA003308FB0034089E
:10046600FC001D30F5007630F600F701F8018A3100
:10047600EA22823170082100C30020003108F90009
:100486003208FA003308FB003408FC009C30F50003
:100496008730F600F701F8018A31EA228231F00945
:1004A600210043087005C7004718CC2B20003508EB
:1004B600F9003608FA003708FB003808FC00FD3062
:1004C600F5006F30F600F701F8018A31EA22823131
:1004D60070082100C30020003508F5003608F60034
:1004E6003708F7003808F800FC30F9008B30FA00BE
:1004F600FB01FC018A31EA22823170082100C70023
:10050600F00120008C18F00970082100C800F001E5
:1005160020000E1BF009210043084705CA004805C4
:10052600C3007005C7004718DC2B20003508F9000A
:100536003608FA003708FB003808FC001D30F500C5
:100546007630F600F701F8018A31EA228231700826
:100556002100C30020003508F9003608FA003708E4
:10056600FB003808FC009C30F5008730F600F701E8
:10057600F8018A31EA228231F00970082100C700A9
:10058600F00120000E1BF009210043084705C800B2
:100596007005C3004318DC2B20003108F90032082F
:1005A600FA003308FB003408FC00FA30F500DF30AF
:1005B600F600F701F8018A31EA228231700821003B
:1005C600C30020003108F5003208F6003308F700B2
:1005D6003408F8002830F900FE30FA00FB01FC016F
:1005E6008A31EA22823170082100C700F00120001A
:1005F6008C18F009210043084705C8007005C300A0
:100606004318F32B20003108F9003208FA003308AA
:10061600FB003408FC009930F500F030F600F701D5
:10062600F8018A31EA22833170082100C3002000D4
:100636003108F9003208FA003308FB003408FC00E0
:10064600B830F500FD30F600F701F8018A31EA22EC
:100656008331F009210043087005C7004718F32BC2
:1006660020003508F9003608FA003708FB0038087C
:10067600FC00FA30F500DF30F600F701F8018A31A8
:10068600EA22833170082100C30020003508F500F6
:100696003608F6003708F7003808F8002830F90061
:1006A600FE30FA00FB01FC018A31EA228331700830
:1006B6002100C700F00120008C18F0097008210005
:1006C600C800F00120000E1BF00921004308470571
:1006D600CA004805C3007005C7004718022C200051
:1006E6003508F9003608FA003708FB003808FC0020
:1006F6009930F500F030F600F701F8018A31EA2268
:10070600833170082100C30020003508F90036083F
:10071600FA003708FB003808FC00B830F500FD3059
:10072600F600F701F8018A31EA228331F0097008F0
:100736002100C700F00120000E1BF009210043082C
:100746004705C8007005C3004318022C162C22006A
:100756008C14F430F2000130F300200089311F219F
:100766008331A22822008C10F430F2000130F3000D
:10077600200089311F218331A228A22822008C1053
:100786008D116430F200F301200089311F2183317D
:10079600A22822008C148D15C8302000CE00CF016F
:1007A600D001D1012C30D2000130D300D401D501C3
:1007B600A22822008C148D1520000E1BE42B22008B
:1007C6008C1022008D11C8302000CE00CF01D00140
:1007D600D1012C30D2000130D300D401D501A2289A
:1007E60022008C148D1564302000CE00CF01D0017C
:1007F600D101C830D200D301D401D501A2282200EC
:100806008C148D1564302000CE00CF01D001D101AB
:10081600C830D200D301D401D5010E1B152C2200FD
:100826008C108D11A22822008C108D11C830F20078
:10083600F301200089311F21843103302100C000DB
:1008460022008D116430F200F301200089311F214E
:10085600843122008D156430F200F30120008931C5
:100866001F2184312100C00B232CA2282000C90A95
:1008760049080A3C0318492CC90122008C108D1125
:100886000130F400200089312D218431A228200076
:10089600C70A47080A3C0318672CC70122008C10B8
:1008A6008D1101302100D00020008A31A722843129
:1008B6000F30F40089312D21843101302100D00020
:1008C60020008A3198228431A2282000CB0A4B08C6
:1008D6000A3C03188F2CCB0122008C100A30210011
:1008E600C00022008D11C830F200F30120008931CA
:1008F6001F21843122008D15C830F200F30120003B
:1009060089311F2184312100C00B742C0230F40080
:10091600200089312D218431A22820008C1CAB2C8B
:1009260004302100C00022008C108D110130F4002B
:10093600200089312D21843122008C148D1502303E
:10094600F400200089312D2184312100C00B962C22
:10095600A228A2286300AD2C01302100D00020007F
:100966008A31A72284313108F9003208FA003308A7
:10097600FB003408FC003508F5003608F600370899
:10098600F7003808F8008A31EA228431701CD72C27
:1009960035083102B9003608323BBA003708333B16
:1009A600BB003808343BBC003508F9003608FA00AD
:1009B6003708FB003808FC003108F5003208F6005D
:1009C6003308F7003408F8008A31EA228431701CB3
:1009D600F82C31083502B9003208363BBA00330824
:1009E600373BBB003408383BBC003908F5003A08F1
:1009F600F6003B08F7003C08F8007F30F900FA01E2
:100A0600FB01FC018B31B9238531D7307007BD005E
:100A16000230713DBE003D08F5003E08F600643028
:100A2600F900FA018B310323853175082100C800CE
:100A36007608C9004808F5004908F600FA30F900BA
:100A4600FA0120008B319523853170082100C300FF
:100A56007108C4004308F5004408F6002000570852
:100A6600F9005808FA008B31032385317508BF0059
:100A76007608C00001302100A900EC30860027303E
:100A860087001830F7000C30F80020008B31FE2369
:100A96008531EC302100BD002730BE0020008931B1
:100AA600DC21853101302100A90020003F08ED003E
:100AB6004008EE008A310322853101302100D00042
:100AC60020008A31982A080021001917991619164C
:100AD600991199139E131D1023008C018D018E010F
:100AE60022009313911320008C018D018E01900139
:100AF60008002100D10803198C2D1030510203196A
:100B06008C2D2030510203198C2D30305102031DDB
:100B1600D1012000181C912D2100511421005203EF
:100B2600031D972DD113D11102305202031D9D2DA5
:100B3600D117D11103305202031DA32DD117D115A0
:100B460004305202031DAA2DD1175117D111510895
:100B560020009800080021009E131F149F141F15E3
:100B66009F152000A008031DBB2D23000C14292E61
:100B76002003031DC12D23008C14292E02302002D0
:100B8600031DC82D23000C15292E03302002031D3A
:100B9600CF2D23008C15292E04302002031DD62DBF
:100BA60023008C16292E0C302002031DDD2D230078
:100BB6000D14292E0A302002031DE42D23008D1466
:100BC600292E08302002031DEB2D23000D15292E9A
:100BD60009302002031DF22D23008D15292E0B301E
:100BE6002002031DF92D23000D16292E0D3020029B
:100BF600031D002E23008D16292E0E302002031D04
:100C0600072E23000E15292E0F302002031D0E2E4F
:100C160023008E15292E10302002031D152E2300C9
:100C26000E16292E11302002031D1C2E23008E16AF
:100C3600292E12302002031D232E23000E17292EE3
:100C460013302002031D292E23008E1721001E13A8
:100C56009E121E161D119D111D129D121D132000A0
:100C6600201C372E21001D152000A01C3C2E210023
:100C76009D152000201D412E21001D162000A01DBF
:100C8600462E21009D162000201E4B2E21001D17EA
:100C960021001D140230F50020008931172186310C
:100CA60021009D1400009D18562E1D1023008C0156
:100CB6008D018E0121001C082000D90021009E1301
:100CC6002000080021009E179D131F149F141F1556
:100CD6009F152000A008031D732E23000C14E12E7F
:100CE6002003031D792E23008C14E12E02302002EE
:100CF600031D802E23000C15E12E03302002031D58
:100D0600872E23008C15E12E04302002031D8E2E23
:100D160023008C16E12E0C302002031D952E230095
:100D26000D14E12E0A302002031D9C2E23008D1483
:100D3600E12E08302002031DA32E23000D15E12EFF
:100D460009302002031DAA2E23008D15E12E0B303B
:100D56002002031DB12E23000D16E12E0D302002B8
:100D6600031DB82E23008D16E12E0E302002031D22
:100D7600BF2E23000E15E12E0F302002031DC62EB6
:100D860023008E15E12E10302002031DCD2E2300E8
:100D96000E16E12E11302002031DD42E23008E16CE
:100DA600E12E12302002031DDB2E23000E17E12E4A
:100DB60013302002031DE12E23008E1721001E137F
:100DC6009E121E161D119D111D129D121D1320002F
:100DD600201CEF2E21001D152000A01CF42E210042
:100DE6009D152000201DF92E21001D162000A01D96
:100DF600FE2E21009D162000201E032F21001D1708
:100E060021001D140230F500200089311721873199
:100E160021009D1400009D180E2F1D1023008C012B
:100E26008D018E0121001B082000DA00DC01210063
:100E36001C082000DC0021009E1320000800210071
:100E46002A08290203192B2F20008931C82187314E
:100E56007F3021002B052000EF00EB0101306F02EF
:100E6600031C5A2FEB0A2100A308031D462F290352
:100E7600031D3F2F22008D13200089314C2187311D
:100E860000000000000021002303031D552F290345
:100E9600031D4F2F22008D17200089314C218731E9
:100EA6000000000020006F086B02031C352F6F083E
:100EB6002100CB002000EB01013021002102031CA0
:100EC600B32F2000EB0A2100A308031D892F201C45
:100ED600772F2903031D712F22008D1720008931DA
:100EE6004C2187312100CB0A2018892F2903031DA5
:100EF6007E2F22008D13200089314C21873100007E
:100F06000000000000000000000000002100230394
:100F1600031DAC2F201C9A2F2903031D942F22009A
:100F26008D13200089314C2187312100CB0A2018EE
:100F3600AC2F2903031DA12F22008D172000893114
:100F46004C21873100000000000000000000000076
:100F560000002100A00C210820006B02031C642F56
:100F66002100A5080319D42F25030319CB0A23034F
:100F76000319CB0A4B1CC82F2903031DC42F2200BB
:100F86008D13200089314C21873121004B18D42F35
:100F96002903031DD02F22008D17200089314C21F3
:100FA60087312000EB01013021002D02031CFD2FAB
:100FB6002000EB0A2100A308031DEA2F2903031DC5
:100FC600E62F22008D17200089314C218731210020
:100FD6002303031DF72F2903031DF32F22008D136F
:100FE600200089314C21873121002D0820006B0219
:100FF600031CDB2F200089314C2901302100D00051
:101006002000A7222100C1010130C20003302000C8
:10101600A0008631652688315A08A9005C08AA0016
:10102600AB01AC010230A0008631652688315A0832
:10103600AD005C08AE00AF01B0012908A1072A087F
:10104600A23D2B08A33D2C08A43D2D08A5072E087C
:10105600A63D2F08A73D3008A83D2100C10B092851
:10106600C20B092820002108F5002208F6002308F3
:10107600F7002408F8001030F900FA01FB01FC0122
:1010860037237508B1007608B2007708B3007808F0
:10109600B4002508F5002608F6002708F7002808FA
:1010A600F8001030F900FA01FB01FC01372375083E
:1010B600B5007608B6007708B7007808B800A10131
:1010C600A201A301A401A501A601A701A80101305F
:1010D6002100D0002000982A0C30A0008531AE25D2
:1010E60088315908C100C2010C30A0008531AE25F7
:1010F60088315908C500C601410845072100C300CB
:1011060020004208463D2100C4004308F50044087B
:10111600F6000230F900FA01200003237508C30027
:101126007608C4004308C1004408C200013021000B
:10113600A900FE30A0002000873122278831013027
:101146002100A9000130A000200087312227883124
:101156000A30F200F3011F2101302100A900EC3012
:101166008600273087001530F7000C30F800200085
:10117600FE23EC302100BD002730BE002000DC211C
:1011860001302100A90020004108ED004208EE00D0
:1011960003224108FF3C2100C300C701200042088A
:1011A6002100473BC4004308F5004408F60003301D
:1011B600F900FA0120009523E3307007D7000030CC
:1011C600713DD8004108F5004208F600CD30F9001F
:1011D600FA01DB22701C00294108F33C2100C30000
:1011E600C701200042082100473BC40043082000F5
:1011F600D702210044082000D83B08002100D0086F
:10120600031D07292000950121005003031D0E2907
:10121600200097019601023021005002031D152976
:1012260020009A01200008000530F000F00B192973
:101236000000F50B17290800F30A0430F100A53069
:10124600F000F00B2429F10B2229F20B2029F30BD5
:1012560020290800E830F2000330F3001F21F40BC8
:101266002D29080021002908AA002903031D472962
:101276002708A8002B08AC002108A2002D08AE0004
:101286002508A6002308A4000530F200F30120007B
:101296001F2921002703031D57291630F000F00BE4
:1012A600522900002000080002302702031D612990
:1012B6003730F000F00B5D292000080004302702CB
:1012C600031D6C297A30F000F00B6729000020001E
:1012D600080008302702031D7E290130F100F001C5
:1012E600F00B7329F10B72290230F000F00B79290B
:1012F60000002000080010302702031D902902304C
:10130600F100F001F00B8529F10B84291530F0006E
:10131600F00B8B2900002000080020302702031D57
:10132600A2290430F100F001F00B9729F10B962960
:101336003D30F000F00B9D290000200008004030F1
:101346002702031DB3290830F100F001F00BA9298B
:10135600F10BA8299130F000F00BAF29200008000E
:101366002000EC01013021002702031CC6292000C1
:10137600EC0A1C30F000F00BBE29210027082000E3
:101386006C02031CBA292000080021002908AA00C3
:101396002903031DDA292808A7002C08AB00220818
:1013A600A1002E08AD002608A5002408A3002000F1
:1013B600080021003D0884003E0885000008200042
:1013C600D600D6080319012A2100BF0101302000EA
:1013D6005602031C012A2100BF0A3F083D0784006C
:1013E60000303E3D85000008A000200087312227FE
:1013F6008931560821003F02031CEE29200008000F
:10140600CD016D08F5006E08F6001030F9002730A2
:10141600FA00DB22F009701C282A6D08F5006E0818
:10142600F6001030F9002730FA0003237508CD00C6
:101436007008ED007108EE0030304D072100A00065
:101446002000873122278A31342A6D08F5006E087C
:10145600F600E830F9000330FA00DB22F009701CD0
:101466004C2A6D08F5006E08F600E830F9000330E6
:10147600FA0003237508CD007008ED007108EE0030
:1014860030304D072100A0002000873122278A3105
:10149600572A6D08F5006E08F6006430F900FA0167
:1014A600DB22F009701C6E2A6D08F5006E08F60046
:1014B6006430F900FA0103237508CD007008ED00C9
:1014C6007108EE0030304D072100A0002000873162
:1014D60022278A31792A6D08F5006E08F6000A304F
:1014E600F900FA01DB22F009701C8F2A6D08F5005D
:1014F6006E08F6000A30F900FA0103237508CD00DC
:101506007008ED007108EE0030304D072100A00094
:101516002000873122278A3130306D072100A00054
:101526002000873122278A31080021005003031D3D
:101536009E2A20001814023021005002031DA52AFD
:1015460020001C152000080021005003031DAD2AB1
:1015560020001810023021005002031DB42A20007A
:101566001C1120000800F00175087902031D08000F
:1015760076087A02031D0800F0090800F0017508D4
:101586007902031D080076087A02031D0800770811
:101596007B02031D080078087C02031D0800F00981
:1015A6000800F001031479087502031CF00908000D
:1015B600F00176087A02031C08007A087602031CFA
:1015C600E82A7908750203180800F0090800F001F6
:1015D60078087C02031C0800031D012B77087B0298
:1015E600031C0800031D012B76087A02031C080061
:1015F600031D012B7908750203180800F00908007D
:101606007508F7007608F8007908FB007A08FC00F0
:10161600F201F3017B08F5007C08F600F901FA01F6
:10162600B622701C192BF501F60108001030F400E3
:101636000310F70DF80DF20DF30D7B08F2027C088E
:10164600F33B771403182C2B77107B08F2077C08E2
:10165600F33DF40B1B2B7708F5007808F6007208AB
:10166600F0007308F100080075082100B100760843
:10167600B2007708B3007808B4007908B5007A0894
:10168600B6007B08B7007C08B800B901BA01BB01F7
:10169600BC013508F5003608F6003708F7003808AB
:1016A600F800F901FA01FB01FC012000C122701CBF
:1016B600612BF501F601F701F80108002030F4006E
:1016C60003102100B10DB20DB30DB40DB90DBA0D55
:1016D600BB0DBC0D3508B9023608BA3B3708BB3B13
:1016E6003808BC3B31140318812B31103508B90773
:1016F6003608BA3D3708BB3D3808BC3DF40B632BB2
:101706003108F5003208F6003308F7003408F8000F
:101716003908F0003A08F1003B08F2003C08F300F3
:10172600200008007508F7007608F8007908FB0025
:101736007A08FC00F201F3017B1CA52B7708F2075F
:101746007808F33D0310FC0CFB0C0310F70DF80DA5
:101756007B08F9007C08FA00F501F601DB22701817
:101766009F2B7208F0007308F1000800750821002D
:10177600B1007608B2007708B3007808B40079089B
:10178600B5007A08B6007B08B7007C08B800B90136
:10179600BA01BB01BC012100351CD92B3108B907A0
:1017A6003208BA3D3308BB3D3408BC3D0310B80CC3
:1017B600B70CB60CB50C0310B10DB20DB30DB40DCC
:1017C6003508F9003608FA003708FB003808FC002F
:1017D600F501F601F701F8012000EA227018CE2B78
:1017E60021003908F0003A08F1003B08F2003C08F5
:1017F600F300200008000E24F5008100052C0E24BD
:10180600F500F607F508031908000E24413181009A
:10181600F50B082C080078088A007708F70A0319E0
:10182600F80A8200023454343A34033420344434FF
:021836003A3442
:020000040001F9
:04000E00A43FFF1EEE
:00000001FF
